{
  "_format": "hh-sol-artifact-1",
  "contractName": "Election",
  "sourceName": "contracts/Election.sol",
  "abi": [
    {
      "inputs": [
        {
          "internalType": "string",
          "name": "_name",
          "type": "string"
        },
        {
          "internalType": "string[]",
          "name": "_candidateNames",
          "type": "string[]"
        }
      ],
      "stateMutability": "nonpayable",
      "type": "constructor"
    },
    {
      "anonymous": false,
      "inputs": [
        {
          "indexed": true,
          "internalType": "uint256",
          "name": "candidateId",
          "type": "uint256"
        },
        {
          "indexed": false,
          "internalType": "address",
          "name": "voter",
          "type": "address"
        }
      ],
      "name": "Voted",
      "type": "event"
    },
    {
      "inputs": [
        {
          "internalType": "uint256",
          "name": "",
          "type": "uint256"
        }
      ],
      "name": "candidates",
      "outputs": [
        {
          "internalType": "uint256",
          "name": "id",
          "type": "uint256"
        },
        {
          "internalType": "string",
          "name": "name",
          "type": "string"
        },
        {
          "internalType": "uint256",
          "name": "voteCount",
          "type": "uint256"
        }
      ],
      "stateMutability": "view",
      "type": "function"
    },
    {
      "inputs": [],
      "name": "candidatesCount",
      "outputs": [
        {
          "internalType": "uint256",
          "name": "",
          "type": "uint256"
        }
      ],
      "stateMutability": "view",
      "type": "function"
    },
    {
      "inputs": [],
      "name": "electionAdmin",
      "outputs": [
        {
          "internalType": "address",
          "name": "",
          "type": "address"
        }
      ],
      "stateMutability": "view",
      "type": "function"
    },
    {
      "inputs": [],
      "name": "electionName",
      "outputs": [
        {
          "internalType": "string",
          "name": "",
          "type": "string"
        }
      ],
      "stateMutability": "view",
      "type": "function"
    },
    {
      "inputs": [
        {
          "internalType": "uint256",
          "name": "_candidateId",
          "type": "uint256"
        }
      ],
      "name": "vote",
      "outputs": [],
      "stateMutability": "nonpayable",
      "type": "function"
    },
    {
      "inputs": [
        {
          "internalType": "address",
          "name": "",
          "type": "address"
        }
      ],
      "name": "voters",
      "outputs": [
        {
          "internalType": "bool",
          "name": "",
          "type": "bool"
        }
      ],
      "stateMutability": "view",
      "type": "function"
    }
  ],
  "bytecode": "0x60806040523480156200001157600080fd5b506040516200138838038062001388833981810160405281019062000037919062000548565b6200007e6040518060400160405280602081526020017f4465706c6f79696e6720456c656374696f6e20636f6e747261637420666f723a815250836200012a60201b60201c565b336000806101000a81548173ffffffffffffffffffffffffffffffffffffffff021916908373ffffffffffffffffffffffffffffffffffffffff1602179055508160019081620000cf919062000818565b5060005b815181101562000121576200010b828281518110620000f757620000f6620008ff565b5b6020026020010151620001d060201b60201c565b808062000118906200095d565b915050620000d3565b50505062000a66565b620001cc828260405160240162000143929190620009fc565b6040516020818303038152906040527f4b5c4277000000000000000000000000000000000000000000000000000000007bffffffffffffffffffffffffffffffffffffffffffffffffffffffff19166020820180517bffffffffffffffffffffffffffffffffffffffffffffffffffffffff83818316178352505050506200024f60201b60201c565b5050565b60026000815480929190620001e5906200095d565b91905055506040518060600160405280600254815260200182815260200160008152506003600060025481526020019081526020016000206000820151816000015560208201518160010190816200023e919062000818565b506040820151816002015590505050565b6200027581620002706200027860201b62000466176200029960201b60201c565b60201c565b50565b60006a636f6e736f6c652e6c6f679050600080835160208501845afa505050565b620002ad60201b6200048717819050919050565b620002b762000a37565b565b6000604051905090565b600080fd5b600080fd5b600080fd5b600080fd5b6000601f19601f8301169050919050565b7f4e487b7100000000000000000000000000000000000000000000000000000000600052604160045260246000fd5b6200032282620002d7565b810181811067ffffffffffffffff82111715620003445762000343620002e8565b5b80604052505050565b600062000359620002b9565b905062000367828262000317565b919050565b600067ffffffffffffffff8211156200038a5762000389620002e8565b5b6200039582620002d7565b9050602081019050919050565b60005b83811015620003c2578082015181840152602081019050620003a5565b60008484015250505050565b6000620003e5620003df846200036c565b6200034d565b905082815260208101848484011115620004045762000403620002d2565b5b62000411848285620003a2565b509392505050565b600082601f830112620004315762000430620002cd565b5b815162000443848260208601620003ce565b91505092915050565b600067ffffffffffffffff8211156200046a5762000469620002e8565b5b602082029050602081019050919050565b600080fd5b60006200049762000491846200044c565b6200034d565b90508083825260208201905060208402830185811115620004bd57620004bc6200047b565b5b835b818110156200050b57805167ffffffffffffffff811115620004e657620004e5620002cd565b5b808601620004f5898262000419565b85526020850194505050602081019050620004bf565b5050509392505050565b600082601f8301126200052d576200052c620002cd565b5b81516200053f84826020860162000480565b91505092915050565b60008060408385031215620005625762000561620002c3565b5b600083015167ffffffffffffffff811115620005835762000582620002c8565b5b620005918582860162000419565b925050602083015167ffffffffffffffff811115620005b557620005b4620002c8565b5b620005c38582860162000515565b9150509250929050565b600081519050919050565b7f4e487b7100000000000000000000000000000000000000000000000000000000600052602260045260246000fd5b600060028204905060018216806200062057607f821691505b602082108103620006365762000635620005d8565b5b50919050565b60008190508160005260206000209050919050565b60006020601f8301049050919050565b600082821b905092915050565b600060088302620006a07fffffffffffffffffffffffffffffffffffffffffffffffffffffffffffffffff8262000661565b620006ac868362000661565b95508019841693508086168417925050509392505050565b6000819050919050565b6000819050919050565b6000620006f9620006f3620006ed84620006c4565b620006ce565b620006c4565b9050919050565b6000819050919050565b6200071583620006d8565b6200072d620007248262000700565b8484546200066e565b825550505050565b600090565b6200074462000735565b620007518184846200070a565b505050565b5b8181101562000779576200076d6000826200073a565b60018101905062000757565b5050565b601f821115620007c85762000792816200063c565b6200079d8462000651565b81016020851015620007ad578190505b620007c5620007bc8562000651565b83018262000756565b50505b505050565b600082821c905092915050565b6000620007ed60001984600802620007cd565b1980831691505092915050565b6000620008088383620007da565b9150826002028217905092915050565b6200082382620005cd565b67ffffffffffffffff8111156200083f576200083e620002e8565b5b6200084b825462000607565b620008588282856200077d565b600060209050601f8311600181146200089057600084156200087b578287015190505b620008878582620007fa565b865550620008f7565b601f198416620008a0866200063c565b60005b82811015620008ca57848901518255600182019150602085019450602081019050620008a3565b86831015620008ea5784890151620008e6601f891682620007da565b8355505b6001600288020188555050505b505050505050565b7f4e487b7100000000000000000000000000000000000000000000000000000000600052603260045260246000fd5b7f4e487b7100000000000000000000000000000000000000000000000000000000600052601160045260246000fd5b60006200096a82620006c4565b91507fffffffffffffffffffffffffffffffffffffffffffffffffffffffffffffffff82036200099f576200099e6200092e565b5b600182019050919050565b600082825260208201905092915050565b6000620009c882620005cd565b620009d48185620009aa565b9350620009e6818560208601620003a2565b620009f181620002d7565b840191505092915050565b6000604082019050818103600083015262000a188185620009bb565b9050818103602083015262000a2e8184620009bb565b90509392505050565b7f4e487b7100000000000000000000000000000000000000000000000000000000600052605160045260246000fd5b6109128062000a766000396000f3fe608060405234801561001057600080fd5b50600436106100625760003560e01c80630121b93f146100675780630aa05677146100835780632d35a8a2146100a15780633477ee2e146100bf57806385e8e7a7146100f1578063a3ec138d1461010f575b600080fd5b610081600480360381019061007c91906104cc565b61013f565b005b61008b6102dc565b604051610098919061053a565b60405180910390f35b6100a9610300565b6040516100b69190610564565b60405180910390f35b6100d960048036038101906100d491906104cc565b610306565b6040516100e89392919061060f565b60405180910390f35b6100f96103b8565b604051610106919061064d565b60405180910390f35b6101296004803603810190610124919061069b565b610446565b60405161013691906106e3565b60405180910390f35b600460003373ffffffffffffffffffffffffffffffffffffffff1673ffffffffffffffffffffffffffffffffffffffff16815260200190815260200160002060009054906101000a900460ff16156101cc576040517f08c379a00000000000000000000000000000000000000000000000000000000081526004016101c39061074a565b60405180910390fd5b6000811180156101de57506002548111155b61021d576040517f08c379a0000000000000000000000000000000000000000000000000000000008152600401610214906107b6565b60405180910390fd5b6001600460003373ffffffffffffffffffffffffffffffffffffffff1673ffffffffffffffffffffffffffffffffffffffff16815260200190815260200160002060006101000a81548160ff02191690831515021790555060036000828152602001908152602001600020600201600081548092919061029c90610805565b9190505550807f030b0f8dcd86a031eddb071f91882edeac8173663ba775713b677b42b51be44b336040516102d1919061053a565b60405180910390a250565b60008054906101000a900473ffffffffffffffffffffffffffffffffffffffff1681565b60025481565b600360205280600052604060002060009150905080600001549080600101805461032f9061087c565b80601f016020809104026020016040519081016040528092919081815260200182805461035b9061087c565b80156103a85780601f1061037d576101008083540402835291602001916103a8565b820191906000526020600020905b81548152906001019060200180831161038b57829003601f168201915b5050505050908060020154905083565b600180546103c59061087c565b80601f01602080910402602001604051908101604052809291908181526020018280546103f19061087c565b801561043e5780601f106104135761010080835404028352916020019161043e565b820191906000526020600020905b81548152906001019060200180831161042157829003601f168201915b505050505081565b60046020528060005260406000206000915054906101000a900460ff1681565b60006a636f6e736f6c652e6c6f679050600080835160208501845afa505050565b61048f6108ad565b565b600080fd5b6000819050919050565b6104a981610496565b81146104b457600080fd5b50565b6000813590506104c6816104a0565b92915050565b6000602082840312156104e2576104e1610491565b5b60006104f0848285016104b7565b91505092915050565b600073ffffffffffffffffffffffffffffffffffffffff82169050919050565b6000610524826104f9565b9050919050565b61053481610519565b82525050565b600060208201905061054f600083018461052b565b92915050565b61055e81610496565b82525050565b60006020820190506105796000830184610555565b92915050565b600081519050919050565b600082825260208201905092915050565b60005b838110156105b957808201518184015260208101905061059e565b60008484015250505050565b6000601f19601f8301169050919050565b60006105e18261057f565b6105eb818561058a565b93506105fb81856020860161059b565b610604816105c5565b840191505092915050565b60006060820190506106246000830186610555565b818103602083015261063681856105d6565b90506106456040830184610555565b949350505050565b6000602082019050818103600083015261066781846105d6565b905092915050565b61067881610519565b811461068357600080fd5b50565b6000813590506106958161066f565b92915050565b6000602082840312156106b1576106b0610491565b5b60006106bf84828501610686565b91505092915050565b60008115159050919050565b6106dd816106c8565b82525050565b60006020820190506106f860008301846106d4565b92915050565b7f596f75206861766520616c7265616479206361737420796f757220766f74652e600082015250565b600061073460208361058a565b915061073f826106fe565b602082019050919050565b6000602082019050818103600083015261076381610727565b9050919050565b7f496e76616c69642063616e6469646174652049442e0000000000000000000000600082015250565b60006107a060158361058a565b91506107ab8261076a565b602082019050919050565b600060208201905081810360008301526107cf81610793565b9050919050565b7f4e487b7100000000000000000000000000000000000000000000000000000000600052601160045260246000fd5b600061081082610496565b91507fffffffffffffffffffffffffffffffffffffffffffffffffffffffffffffffff8203610842576108416107d6565b5b600182019050919050565b7f4e487b7100000000000000000000000000000000000000000000000000000000600052602260045260246000fd5b6000600282049050600182168061089457607f821691505b6020821081036108a7576108a661084d565b5b50919050565b7f4e487b7100000000000000000000000000000000000000000000000000000000600052605160045260246000fdfea26469706673582212200c85d48c44ce7387a217a3afe85330fa9eae400d0bda3e72cad041197166b3a564736f6c63430008140033",
  "linkReferences": {},
  "deployedLinkReferences": {}
}