{
  "_format": "hh-sol-artifact-1",
  "contractName": "VeriVote",
  "sourceName": "contracts/VeriVote.sol",
  "abi": [
    {
      "inputs": [],
      "stateMutability": "nonpayable",
      "type": "constructor"
    },
    {
      "anonymous": false,
      "inputs": [
        {
          "indexed": true,
          "internalType": "bytes32",
          "name": "electionId",
          "type": "bytes32"
        },
        {
          "indexed": true,
          "internalType": "uint8",
          "name": "candidateId",
          "type": "uint8"
        },
        {
          "indexed": false,
          "internalType": "bytes32",
          "name": "voterId",
          "type": "bytes32"
        }
      ],
      "name": "Voted",
      "type": "event"
    },
    {
      "inputs": [],
      "name": "contractAdmin",
      "outputs": [
        {
          "internalType": "address",
          "name": "",
          "type": "address"
        }
      ],
      "stateMutability": "view",
      "type": "function"
    },
    {
      "inputs": [
        {
          "internalType": "bytes32",
          "name": "_electionId",
          "type": "bytes32"
        },
        {
          "internalType": "uint8",
          "name": "_numCandidates",
          "type": "uint8"
        }
      ],
      "name": "createElection",
      "outputs": [],
      "stateMutability": "nonpayable",
      "type": "function"
    },
    {
      "inputs": [
        {
          "internalType": "bytes32",
          "name": "",
          "type": "bytes32"
        }
      ],
      "name": "elections",
      "outputs": [
        {
          "internalType": "bool",
          "name": "exists",
          "type": "bool"
        },
        {
          "internalType": "bool",
          "name": "isActive",
          "type": "bool"
        },
        {
          "internalType": "uint8",
          "name": "candidatesCount",
          "type": "uint8"
        }
      ],
      "stateMutability": "view",
      "type": "function"
    },
    {
      "inputs": [
        {
          "internalType": "bytes32",
          "name": "_electionId",
          "type": "bytes32"
        },
        {
          "internalType": "uint8",
          "name": "_candidateId",
          "type": "uint8"
        }
      ],
      "name": "getVoteCount",
      "outputs": [
        {
          "internalType": "uint256",
          "name": "",
          "type": "uint256"
        }
      ],
      "stateMutability": "view",
      "type": "function"
    },
    {
      "inputs": [
        {
          "internalType": "bytes32",
          "name": "_electionId",
          "type": "bytes32"
        },
        {
          "internalType": "bool",
          "name": "_isActive",
          "type": "bool"
        }
      ],
      "name": "toggleElectionState",
      "outputs": [],
      "stateMutability": "nonpayable",
      "type": "function"
    },
    {
      "inputs": [
        {
          "internalType": "bytes32",
          "name": "_electionId",
          "type": "bytes32"
        },
        {
          "internalType": "uint8",
          "name": "_candidateId",
          "type": "uint8"
        },
        {
          "internalType": "bytes32",
          "name": "_voterId",
          "type": "bytes32"
        }
      ],
      "name": "vote",
      "outputs": [],
      "stateMutability": "nonpayable",
      "type": "function"
    }
  ],
  "bytecode": "0x608060405234801561001057600080fd5b50336000806101000a81548173ffffffffffffffffffffffffffffffffffffffff021916908373ffffffffffffffffffffffffffffffffffffffff160217905550610d43806100606000396000f3fe608060405234801561001057600080fd5b50600436106100625760003560e01c806305ab39b7146100675780632cdeb65914610099578063482e91a5146100b55780636de7f51f146100e55780637795524514610101578063ff8b40561461011f575b600080fd5b610081600480360381019061007c91906106c5565b61013b565b60405161009093929190610729565b60405180910390f35b6100b360048036038101906100ae919061078c565b61018c565b005b6100cf60048036038101906100ca91906107f8565b6102af565b6040516100dc9190610851565b60405180910390f35b6100ff60048036038101906100fa91906107f8565b6102e7565b005b610109610491565b60405161011691906108ad565b60405180910390f35b610139600480360381019061013491906108c8565b6104b5565b005b60016020528060005260406000206000915090508060000160009054906101000a900460ff16908060000160019054906101000a900460ff16908060000160029054906101000a900460ff16905083565b60008054906101000a900473ffffffffffffffffffffffffffffffffffffffff1673ffffffffffffffffffffffffffffffffffffffff163373ffffffffffffffffffffffffffffffffffffffff161461021a576040517f08c379a00000000000000000000000000000000000000000000000000000000081526004016102119061099e565b60405180910390fd5b6001600083815260200190815260200160002060000160009054906101000a900460ff1661027d576040517f08c379a000000000000000000000000000000000000000000000000000000000815260040161027490610a0a565b60405180910390fd5b806001600084815260200190815260200160002060000160016101000a81548160ff0219169083151502179055505050565b60006001600084815260200190815260200160002060010160008360ff1660ff16815260200190815260200160002054905092915050565b60008054906101000a900473ffffffffffffffffffffffffffffffffffffffff1673ffffffffffffffffffffffffffffffffffffffff163373ffffffffffffffffffffffffffffffffffffffff1614610375576040517f08c379a000000000000000000000000000000000000000000000000000000000815260040161036c9061099e565b60405180910390fd5b6001600083815260200190815260200160002060000160009054906101000a900460ff16156103d9576040517f08c379a00000000000000000000000000000000000000000000000000000000081526004016103d090610a76565b60405180910390fd5b60028160ff16101580156103f1575060038160ff1611155b610430576040517f08c379a000000000000000000000000000000000000000000000000000000000815260040161042790610ae2565b60405180910390fd5b600180600084815260200190815260200160002060000160006101000a81548160ff021916908315150217905550806001600084815260200190815260200160002060000160026101000a81548160ff021916908360ff1602179055505050565b60008054906101000a900473ffffffffffffffffffffffffffffffffffffffff1681565b60006001600085815260200190815260200160002090508060000160019054906101000a900460ff1661051d576040517f08c379a000000000000000000000000000000000000000000000000000000000815260040161051490610b4e565b60405180910390fd5b80600201600083815260200190815260200160002060009054906101000a900460ff1615610580576040517f08c379a000000000000000000000000000000000000000000000000000000000815260040161057790610be0565b60405180910390fd5b60008360ff161180156105aa57508060000160029054906101000a900460ff1660ff168360ff1611155b6105e9576040517f08c379a00000000000000000000000000000000000000000000000000000000081526004016105e090610c4c565b60405180910390fd5b600181600201600084815260200190815260200160002060006101000a81548160ff0219169083151502179055508060010160008460ff1660ff168152602001908152602001600020600081548092919061064390610c9b565b91905055508260ff16847f07a60495389d9702878eaee4900af3974feb7741ada4e0a2132b267730ba6afa8460405161067c9190610cf2565b60405180910390a350505050565b600080fd5b6000819050919050565b6106a28161068f565b81146106ad57600080fd5b50565b6000813590506106bf81610699565b92915050565b6000602082840312156106db576106da61068a565b5b60006106e9848285016106b0565b91505092915050565b60008115159050919050565b610707816106f2565b82525050565b600060ff82169050919050565b6107238161070d565b82525050565b600060608201905061073e60008301866106fe565b61074b60208301856106fe565b610758604083018461071a565b949350505050565b610769816106f2565b811461077457600080fd5b50565b60008135905061078681610760565b92915050565b600080604083850312156107a3576107a261068a565b5b60006107b1858286016106b0565b92505060206107c285828601610777565b9150509250929050565b6107d58161070d565b81146107e057600080fd5b50565b6000813590506107f2816107cc565b92915050565b6000806040838503121561080f5761080e61068a565b5b600061081d858286016106b0565b925050602061082e858286016107e3565b9150509250929050565b6000819050919050565b61084b81610838565b82525050565b60006020820190506108666000830184610842565b92915050565b600073ffffffffffffffffffffffffffffffffffffffff82169050919050565b60006108978261086c565b9050919050565b6108a78161088c565b82525050565b60006020820190506108c2600083018461089e565b92915050565b6000806000606084860312156108e1576108e061068a565b5b60006108ef868287016106b0565b9350506020610900868287016107e3565b9250506040610911868287016106b0565b9150509250925092565b600082825260208201905092915050565b7f4f6e6c792074686520636f6e74726163742061646d696e2063616e2063616c6c60008201527f20746869732066756e6374696f6e2e0000000000000000000000000000000000602082015250565b6000610988602f8361091b565b91506109938261092c565b604082019050919050565b600060208201905081810360008301526109b78161097b565b9050919050565b7f456c656374696f6e20646f6573206e6f742065786973742e0000000000000000600082015250565b60006109f460188361091b565b91506109ff826109be565b602082019050919050565b60006020820190508181036000830152610a23816109e7565b9050919050565b7f456c656374696f6e20616c7265616479206578697374732e0000000000000000600082015250565b6000610a6060188361091b565b9150610a6b82610a2a565b602082019050919050565b60006020820190508181036000830152610a8f81610a53565b9050919050565b7f43616e64696461746520636f756e74206d7573742062652032206f7220332e00600082015250565b6000610acc601f8361091b565b9150610ad782610a96565b602082019050919050565b60006020820190508181036000830152610afb81610abf565b9050919050565b7f5468697320656c656374696f6e206973206e6f74206163746976652e00000000600082015250565b6000610b38601c8361091b565b9150610b4382610b02565b602082019050919050565b60006020820190508181036000830152610b6781610b2b565b9050919050565b7f596f75206861766520616c726561647920766f74656420696e2074686973206560008201527f6c656374696f6e2e000000000000000000000000000000000000000000000000602082015250565b6000610bca60288361091b565b9150610bd582610b6e565b604082019050919050565b60006020820190508181036000830152610bf981610bbd565b9050919050565b7f496e76616c69642063616e6469646174652049442e0000000000000000000000600082015250565b6000610c3660158361091b565b9150610c4182610c00565b602082019050919050565b60006020820190508181036000830152610c6581610c29565b9050919050565b7f4e487b7100000000000000000000000000000000000000000000000000000000600052601160045260246000fd5b6000610ca682610838565b91507fffffffffffffffffffffffffffffffffffffffffffffffffffffffffffffffff8203610cd857610cd7610c6c565b5b600182019050919050565b610cec8161068f565b82525050565b6000602082019050610d076000830184610ce3565b9291505056fea26469706673582212204645f065b9916da14d25d5167c2c93453902c1bdb90d4f4f46a18dc33eccf3f664736f6c63430008140033",
  "linkReferences": {},
  "deployedLinkReferences": {}
}